{
  "_format": "hh3-artifact-1",
  "contractName": "effectstreaml2",
  "sourceName": "src/contracts/effectstreaml2.sol",
  "abi": [
    {
      "inputs": [],
      "stateMutability": "nonpayable",
      "type": "constructor"
    },
    {
      "inputs": [],
      "name": "FailedCall",
      "type": "error"
    },
    {
      "inputs": [
        {
          "internalType": "uint256",
          "name": "balance",
          "type": "uint256"
        },
        {
          "internalType": "uint256",
          "name": "needed",
          "type": "uint256"
        }
      ],
      "name": "InsufficientBalance",
      "type": "error"
    },
    {
      "anonymous": false,
      "inputs": [
        {
          "indexed": true,
          "internalType": "address",
          "name": "userAddress",
          "type": "address"
        },
        {
          "indexed": false,
          "internalType": "bytes",
          "name": "data",
          "type": "bytes"
        },
        {
          "indexed": false,
          "internalType": "uint256",
          "name": "value",
          "type": "uint256"
        }
      ],
      "name": "PaimaGameInteraction",
      "type": "event"
    },
    {
      "inputs": [],
      "name": "fee",
      "outputs": [
        {
          "internalType": "uint256",
          "name": "",
          "type": "uint256"
        }
      ],
      "stateMutability": "view",
      "type": "function"
    },
    {
      "inputs": [],
      "name": "owner",
      "outputs": [
        {
          "internalType": "address",
          "name": "",
          "type": "address"
        }
      ],
      "stateMutability": "view",
      "type": "function"
    },
    {
      "inputs": [
        {
          "internalType": "bytes",
          "name": "data",
          "type": "bytes"
        }
      ],
      "name": "paimaSubmitGameInput",
      "outputs": [],
      "stateMutability": "payable",
      "type": "function"
    },
    {
      "inputs": [
        {
          "internalType": "uint256",
          "name": "newFee",
          "type": "uint256"
        }
      ],
      "name": "setFee",
      "outputs": [],
      "stateMutability": "nonpayable",
      "type": "function"
    },
    {
      "inputs": [
        {
          "internalType": "address",
          "name": "newOwner",
          "type": "address"
        }
      ],
      "name": "setOwner",
      "outputs": [],
      "stateMutability": "nonpayable",
      "type": "function"
    },
    {
      "inputs": [],
      "name": "withdrawFunds",
      "outputs": [],
      "stateMutability": "nonpayable",
      "type": "function"
    }
  ],
  "bytecode": "0x6080604052348015600e575f5ffd5b5073f39fd6e51aad88f6f4ce6ab8827279cfffb922665f815f5f6101000a81548173ffffffffffffffffffffffffffffffffffffffff021916908373ffffffffffffffffffffffffffffffffffffffff160217905550806001819055505050610a0e8061007a5f395ff3fe608060405260043610610054575f3560e01c806313af40351461005857806324600fc3146100805780633804df031461009657806369fe0e2d146100b25780638da5cb5b146100da578063ddca3f4314610104575b5f5ffd5b348015610063575f5ffd5b5061007e6004803603810190610079919061058b565b61012e565b005b34801561008b575f5ffd5b506100946101fe565b005b6100b060048036038101906100ab9190610617565b6102e1565b005b3480156100bd575f5ffd5b506100d860048036038101906100d39190610695565b61037c565b005b3480156100e5575f5ffd5b506100ee610414565b6040516100fb91906106cf565b60405180910390f35b34801561010f575f5ffd5b50610118610438565b60405161012591906106f7565b60405180910390f35b5f5f9054906101000a900473ffffffffffffffffffffffffffffffffffffffff1673ffffffffffffffffffffffffffffffffffffffff163373ffffffffffffffffffffffffffffffffffffffff16146101bc576040517f08c379a00000000000000000000000000000000000000000000000000000000081526004016101b39061076a565b60405180910390fd5b805f5f6101000a81548173ffffffffffffffffffffffffffffffffffffffff021916908373ffffffffffffffffffffffffffffffffffffffff16021790555050565b5f5f9054906101000a900473ffffffffffffffffffffffffffffffffffffffff1673ffffffffffffffffffffffffffffffffffffffff163373ffffffffffffffffffffffffffffffffffffffff161461028c576040517f08c379a0000000000000000000000000000000000000000000000000000000008152600401610283906107d2565b60405180910390fd5b5f5f5f9054906101000a900473ffffffffffffffffffffffffffffffffffffffff1690505f4790506102dd818373ffffffffffffffffffffffffffffffffffffffff1661043e90919063ffffffff16565b5050565b600154341015610326576040517f08c379a000000000000000000000000000000000000000000000000000000000815260040161031d90610860565b60405180910390fd5b3373ffffffffffffffffffffffffffffffffffffffff167fffa7cf79b6173c04d5ec2b41bce25acc6e48f9cf86349011288bab7da23fc517838334604051610370939291906108d8565b60405180910390a25050565b5f5f9054906101000a900473ffffffffffffffffffffffffffffffffffffffff1673ffffffffffffffffffffffffffffffffffffffff163373ffffffffffffffffffffffffffffffffffffffff161461040a576040517f08c379a000000000000000000000000000000000000000000000000000000000815260040161040190610952565b60405180910390fd5b8060018190555050565b5f5f9054906101000a900473ffffffffffffffffffffffffffffffffffffffff1681565b60015481565b804710156104855747816040517fcf47918100000000000000000000000000000000000000000000000000000000815260040161047c929190610970565b60405180910390fd5b5f8273ffffffffffffffffffffffffffffffffffffffff16826040516104aa906109c4565b5f6040518083038185875af1925050503d805f81146104e4576040519150601f19603f3d011682016040523d82523d5f602084013e6104e9565b606091505b5050905080610524576040517fd6bda27500000000000000000000000000000000000000000000000000000000815260040160405180910390fd5b505050565b5f5ffd5b5f5ffd5b5f73ffffffffffffffffffffffffffffffffffffffff82169050919050565b5f61055a82610531565b9050919050565b61056a81610550565b8114610574575f5ffd5b50565b5f8135905061058581610561565b92915050565b5f602082840312156105a05761059f610529565b5b5f6105ad84828501610577565b91505092915050565b5f5ffd5b5f5ffd5b5f5ffd5b5f5f83601f8401126105d7576105d66105b6565b5b8235905067ffffffffffffffff8111156105f4576105f36105ba565b5b6020830191508360018202830111156106105761060f6105be565b5b9250929050565b5f5f6020838503121561062d5761062c610529565b5b5f83013567ffffffffffffffff81111561064a5761064961052d565b5b610656858286016105c2565b92509250509250929050565b5f819050919050565b61067481610662565b811461067e575f5ffd5b50565b5f8135905061068f8161066b565b92915050565b5f602082840312156106aa576106a9610529565b5b5f6106b784828501610681565b91505092915050565b6106c981610550565b82525050565b5f6020820190506106e25f8301846106c0565b92915050565b6106f181610662565b82525050565b5f60208201905061070a5f8301846106e8565b92915050565b5f82825260208201905092915050565b7f4f6e6c79206f776e65722063616e206368616e6765206f776e657200000000005f82015250565b5f610754601b83610710565b915061075f82610720565b602082019050919050565b5f6020820190508181035f83015261078181610748565b9050919050565b7f4f6e6c79206f776e65722063616e2077697468647261772066756e64730000005f82015250565b5f6107bc601d83610710565b91506107c782610788565b602082019050919050565b5f6020820190508181035f8301526107e9816107b0565b9050919050565b7f53756666696369656e742066756e647320726571756972656420746f207375625f8201527f6d69742067616d6520696e707574000000000000000000000000000000000000602082015250565b5f61084a602e83610710565b9150610855826107f0565b604082019050919050565b5f6020820190508181035f8301526108778161083e565b9050919050565b5f82825260208201905092915050565b828183375f83830152505050565b5f601f19601f8301169050919050565b5f6108b7838561087e565b93506108c483858461088e565b6108cd8361089c565b840190509392505050565b5f6040820190508181035f8301526108f18185876108ac565b905061090060208301846106e8565b949350505050565b7f4f6e6c79206f776e65722063616e206368616e676520666565000000000000005f82015250565b5f61093c601983610710565b915061094782610908565b602082019050919050565b5f6020820190508181035f83015261096981610930565b9050919050565b5f6040820190506109835f8301856106e8565b61099060208301846106e8565b9392505050565b5f81905092915050565b50565b5f6109af5f83610997565b91506109ba826109a1565b5f82019050919050565b5f6109ce826109a4565b915081905091905056fea2646970667358221220be6b107f84441e17a963a8e333585134e677e637675a6f1dd37ba2eb1b1972f164736f6c634300081e0033",
  "linkReferences": {},
  "deployedLinkReferences": {},
  "immutableReferences": {},
  "inputSourceName": "project/src/contracts/effectstreaml2.sol",
  "buildInfoId": "solc-0_8_30-36f7b811861fdf81e6be7b3b36cdb0995a44589a"
}